:100000000C945E000C9486000C9486000C94860080
:100010000C9486000C9486000C9486000C946E045C
:100020000C9486000C9486000C9486000C94860038
:100030000C9486000C9486000C9486000C94860028
:100040000C9424040C9486000C94F0040C94CA04C0
:100050000C9486000C9486000C9486000C94860008
:100060000C9486000C948600020000000800020137
:100070000000030407000000000000000000000072
:1000800000250028002B0000000000240027002A83
:100090000004040404040404040202020202020331
:1000A000030303030301020408102040800102043B
:1000B00008102001020408102000220511241FBE90
:1000C000CFEFD8E0DEBFCDBF11E0A0E0B1E0ECE2C1
:1000D000F5E102C005900D92AE34B107D9F722E0E8
:1000E000AEE4B1E001C01D92A132B207E1F710E029
:1000F000CEE5D0E004C02197FE010E94890ACD35EB
:10010000D107C9F70E946C050C94940A0C94000066
:1001100090E0FC01EB55FF4F2491FC01EF56FF4F9F
:100120008491882399F090E0880F991FFC01E9578A
:10013000FF4FA591B491FC01E358FF4F8591949135
:100140008FB7F894EC91E22BEC938FBF089590E079
:10015000FC01E759FF4F2491FC01EB55FF4F34910F
:10016000FC01EF56FF4FE491EE2309F43CC022233B
:1001700039F1233091F038F42130A9F0223001F523
:1001800084B58F7D12C0273091F02830A1F0243043
:10019000B9F4809180008F7D03C0809180008F77BB
:1001A000809380000DC084B58F7784BD09C0809195
:1001B000B0008F7703C08091B0008F7D8093B00036
:1001C000F0E0EE0FFF1FE358FF4FA591B4919FB7EA
:1001D000F894611104C08C913095382302C0EC91E1
:1001E0003E2B3C939FBF08953FB7F89480916801E0
:1001F00090916901A0916A01B0916B0126B5A89B0D
:1002000005C02F3F19F00196A11DB11D3FBFBA2FA8
:10021000A92F982F8827820F911DA11DB11DBC0108
:10022000CD0142E0660F771F881F991F4A95D1F7CD
:1002300008958F929F92AF92BF92CF92DF92EF92EA
:10024000FF926B017C010E94F4004B015C01C11420
:10025000D104E104F104F1F00E94F400DC01CB01CF
:1002600088199909AA09BB09883E9340A105B105DF
:1002700070F321E0C21AD108E108F10888EE880E77
:1002800083E0981EA11CB11CC114D104E104F10447
:1002900019F7DDCFFF90EF90DF90CF90BF90AF9038
:1002A0009F908F90089590910001891324C0E8E6F3
:1002B000F0E0E4919FEF90930001E130B9F098F005
:1002C000E230C9F4909170009D7F9093700091E0AE
:1002D0009093B0009091B100987F94609093B1009A
:1002E0001092B30008C010926E0005C090916F008C
:1002F0009D7F90936F0060E00C94A700CF92DF92F7
:10030000EF92FF920F931F93CF93DF936C017A01CB
:100310008B01C0E0D0E0CE15DF0581F0D8016D91F2
:100320008D01D601ED91FC910190F081E02DC60187
:100330000995892B11F02196EECF7E01C701DF913F
:10034000CF911F910F91FF90EF90DF90CF90089584
:10035000FC01538D448D252F30E0842F90E0821BCB
:10036000930B541710F0CF96089501970895FC0150
:10037000918D828D981761F0828DDF01A80FB11DDC
:100380005D968C91928D9F5F9F73928F90E0089500
:100390008FEF9FEF0895FC01918D828D981731F0BA
:1003A000828DE80FF11D858D90E008958FEF9FEF0E
:1003B0000895FC01918D228D892F90E0805C9F4FE4
:1003C000821B91098F73992708958CE691E00E9412
:1003D000D90121E0892B09F420E0822F0895FC0146
:1003E000848DDF01A80FB11DA35ABF4F2C91848DBE
:1003F00090E001968F739927848FA689B7892C93F3
:10040000A089B1898C91837080648C93938D848D45
:10041000981306C00288F389E02D80818F7D808348
:100420000895EF92FF920F931F93CF93DF93EC0108
:1004300081E0888F9B8D8C8D981305C0E889F989A0
:10044000808185FD26C0F62E0B8D10E00F5F1F4FBB
:100450000F731127E02E8C8DE8120CC00FB607FC2D
:10046000FACFE889F989808185FFF5CFCE010E9416
:10047000EF01F1CF8B8DFE01E80FF11DE35AFF4F25
:10048000F0829FB7F8940B8FEA89FB8980818062A4
:100490000AC09FB7F894EE89FF896083E889F989DB
:1004A00080818370806480839FBF81E090E0DF91D2
:1004B000CF911F910F91FF90EF900895CF93DF930D
:1004C000EC01888D8823C9F0EA89FB89808185FD4C
:1004D00005C0A889B9898C9186FD0FC00FB607FCAD
:1004E000F5CF808185FFF2CFA889B9898C9185FFEE
:1004F000EDCFCE010E94EF01E7CFDF91CF910895BC
:1005000080E090E0892B29F00E94E50181110C9494
:1005100000000895CF93DF93EC0160E08E810E948C
:10052000A70061E08E810E94A70060E08E810E949A
:10053000A7008BE891E00197F1F7DF91CF91089543
:10054000CF92DF92EF92FF920F931F93CF93DF939F
:100550006C017C0187E0E80EF11CC0E0D0E0062FC2
:1005600010E0B8010C2E02C0759567950A94E2F769
:100570006170F70181917F010E94A7002196C4302C
:10058000D10579F7C601DF91CF911F910F91FF90AF
:10059000EF90DF90CF900C948A02CF92DF92EF928F
:1005A000FF920F931F93CF93DF93EC01F62E642FEE
:1005B0008C810E94A7008D818F3F19F060E00E941E
:1005C000A7008F850F2D10E084FF25C06E0187E006
:1005D000C80ED11CE12CF12CB8010E2C02C075956F
:1005E00067950A94E2F76170F60181916F010E94AC
:1005F000A700FFEFEF1AFF0A88E0E816F10461F7A1
:10060000CE01DF91CF911F910F91FF90EF90DF907E
:10061000CF900C948A02B80184E0759567958A950D
:10062000E1F7CE010E94A0026F2DCE01DF91CF91A4
:100630001F910F91FF90EF90DF90CF900C94A0024C
:1006400040E0682F89E092E00C94CD02CF93DF93D5
:10065000823028F09091180298609093180280934D
:100660001C0210921D0280E480931E0280E18093A0
:100670001F0280E58093200280910D020E94880075
:1006800080910E028F3F11F00E94880080910F022E
:100690000E948800C9E0D2E09E012950324080913A
:1006A000180284FD03C084E090E002C088E090E07E
:1006B00021962817390724F48E810E948800ECCFF8
:1006C0008BE39DE00197F1F760E080910D020E94BD
:1006D000A70060E080910F020E94A70080910E02A7
:1006E0008F3F19F060E00E94A7008091180284FDFE
:1006F00020C063E089E092E00E94A002CBE4D6E44F
:10070000CE010197F1F763E089E092E00E94A00238
:100710002197F1F763E089E092E00E94A00283E56F
:1007200092E00197F1F762E089E092E00E94A00276
:1007300015C080620E9420038BE496E40197F1F7D4
:100740008091180280620E94200383E592E0019765
:10075000F1F78091180280620E94200380911802B4
:1007600080620E94200384E0809319028CE00E9442
:10077000200381E00E9420038BE39FE10197F1F7C2
:1007800082E080931A0286E0DF91CF910C942003DF
:1007900041E00E94CD0281E090E00895089580E05C
:1007A00090E00895009769F0FC0101900020E9F7BE
:1007B0003197AF01481B590BBC0189E092E00C94C2
:1007C0007E0180E090E0089581E00E9420038BE3A9
:1007D0009FE10197F1F782E00E942603E1E080911A
:1007E0001C028111E0E0E195F0E0E75FFD4F8489B4
:1007F0008F5F80680E9420038FE191E00E94D20306
:10080000E0911C02E23010F4E15001C0E1E0F0E0C0
:10081000E75FFD4F84898F5F80680E9420038BE231
:1008200091E00E94D203E0911C02E23010F4E1500A
:1008300001C0E1E0F0E0E75FFD4F8489875F8068F9
:100840000C9420030E948F0A1F920F920FB60F92F2
:1008500011242F933F938F939F93AF93BF938091D6
:10086000640190916501A0916601B091670130919A
:10087000630123E0230F2D3720F40196A11DB11D44
:1008800005C026E8230F0296A11DB11D2093630128
:100890008093640190936501A0936601B093670112
:1008A0008091680190916901A0916A01B0916B01FA
:1008B0000196A11DB11D8093680190936901A093D9
:1008C0006A01B0936B01BF91AF919F918F913F915E
:1008D0002F910F900FBE0F901F9018951F920F929F
:1008E0000FB60F9211242F933F934F935F936F9303
:1008F0007F938F939F93AF93BF93EF93FF938091D9
:10090000530190915401A0915501B0915601892B4A
:100910008A2B8B2B51F190914E01E0914F01F09178
:1009200050018081892780838091530190915401E7
:10093000A0915501B0915601181619061A061B060A
:10094000C4F48091530190915401A0915501B0914C
:1009500056010197A109B109809353019093540165
:10096000A0935501B093560104C0809100010E94EC
:100970005301FF91EF91BF91AF919F918F917F9123
:100980006F915F914F913F912F910F900FBE0F90FC
:100990001F9018951F920F920FB60F9211242F934C
:1009A0003F934F935F936F937F938F939F93AF93F7
:1009B000BF93EF93FF938CE691E00E94EF01FF91CC
:1009C000EF91BF91AF919F918F917F916F915F91C7
:1009D0004F913F912F910F900FBE0F901F90189540
:1009E0001F920F920FB60F9211242F938F939F9304
:1009F000EF93FF93E0917C01F0917D018081E09184
:100A00008201F091830182FD12C090818091850165
:100A10008F5F8F7320918601821751F0E0918501DD
:100A2000F0E0E459FE4F958F8093850101C08081ED
:100A3000FF91EF919F918F912F910F900FBE0F908B
:100A40001F901895ECE6F1E01382128288EE93E095
:100A5000A0E0B0E084839583A683B78385E091E02E
:100A60009183808385EC90E09587848784EC90E087
:100A70009787868780EC90E0918B808B81EC90E06B
:100A8000938B828B82EC90E0958B848B86EC90E04C
:100A9000978B868B118E128E138E148EE9E0F2E006
:100AA0001382128287E191E0918380838DE08483B9
:100AB0008FEF85838CE086838BE087838AE0808755
:100AC00089E0818788E082871386148615861686DA
:100AD000178681E00C942603CF93DF93CDB7DEB762
:100AE000A1970FB6F894DEBF0FBECDBF789484B542
:100AF000826084BD84B5816084BD85B5826085BD1A
:100B000085B5816085BD80916E00816080936E00A7
:100B10001092810080918100826080938100809199
:100B2000810081608093810080918000816080934A
:100B300080008091B10084608093B1008091B0000A
:100B400081608093B00080917A00846080937A0005
:100B500080917A00826080937A0080917A0081602F
:100B600080937A0080917A00806880937A00109256
:100B7000C100E0917C01F0917D0182E08083E091F1
:100B80007801F09179011082E0917A01F0917B0176
:100B90008FEC808310928401E0918001F0918101BB
:100BA00086E08083E0917E01F0917F018081806109
:100BB0008083E0917E01F0917F0180818860808355
:100BC000E0917E01F0917F01808180688083E091D7
:100BD0007E01F0917F0180818F7D80830E94E403FC
:100BE00087E00E94880086E00E94880085E00E94DD
:100BF000880060E086E00E94A70060E085E00E9437
:100C0000A70060E087E00E94A70068EE73E080E044
:100C100090E00E94190138E9232E30E0332E0E9423
:100C2000E40320E420937C0080917A008064809328
:100C30007A0080917A0086FDFCCF80917800209127
:100C4000790090E0922BA5E0A89FB001A99F700DBC
:100C50001124072E000C880B990B0E94400923E3F6
:100C600033E347EC52E40E94F50920E030EC4FE713
:100C700054E40E949D086B017C014B015C01609370
:100C80005F017093600180936101909362019B0109
:100C9000AC010E94620A882319F083E391E01AC034
:100CA00026013701E89477F82FEF3FEF4FE75FE732
:100CB000C301B2010E94620A81110FC02FEF3FEF02
:100CC0004FE75FE7C301B2010E94980818162CF4A1
:100CD00087E391E00E94D203A2C02FEF3FEF4FE7DE
:100CE0005FE4C701B6010E94F00918161CF48BE3FB
:100CF00091E0F0CF2FEF3FEF4FE75FECC701B60178
:100D00000E94980887FDF3CF20E030E0A901C701D9
:100D1000B6010E94980887FF0CC041E06DE289E0AF
:100D200092E00E94CD0246015701B7FAB094B7F89D
:100D3000B0942AE037ED43EA5BE3C501B4010E94B9
:100D40002C086B017C010E940F094B015C010E9481
:100D50003E099B01AC01C701B6010E942B082B0183
:100D60003C0119A27E01B1E2EB0EF11C0E2DDF2C2D
:100D7000C501B4012AE030E040E050E00E94670A7B
:100D800049015A01605DF70162937F01232B242BF7
:100D9000252B71F7CF010E94D20341E06EE289E07A
:100DA00092E00E94CD0213E01150C9F120E030E042
:100DB00040E251E4C301B2010E94F5094B015C011C
:100DC0000E940F099B0140E050E019A2E02EFD2C8B
:100DD000562E632E742EC52ECA01B9012AE030E0CA
:100DE00040E050E00E94670A605DD7016E937D018C
:100DF000211531054105510579F7CD010E94D20336
:100E0000652D762D872D9C2D0E943E099B01AC01FE
:100E1000C501B4010E942B082B013C01C5CF8FE313
:100E200091E00E94D20364EF71E080E090E00E94C4
:100E3000190120E030E040ED51E460915F017091D4
:100E4000600180916101909162010E94980887FF82
:100E500010C00E94E40361E086E00E94A70060E009
:100E600085E00E94A70087E00E94530182E491E0A0
:100E7000E7C00E94E40360E086E00E94A70061E012
:100E800085E00E94A70080910001873021F08F3F0C
:100E900009F0D4C004C0E8E6F0E014916FC087E028
:100EA00080930001E8E6F0E014911F3F09F4C6C00A
:100EB000113009F442C040F1123009F05FC01092C5
:100EC000B0001092B1008091B00082608093B000B9
:100ED0008091B10081608093B100F1018491E82F8D
:100EE000F0E0EE0FFF1FE358FF4F85919491909330
:100EF000500180934F01ECEAF0E0849180934E0121
:100F000087E00E9488005CC014BC15BC84B5826078
:100F100084BD85B5816085BDF1018491E82FF0E045
:100F2000EE0FFF1FE358FF4F85919491ECEAF0E03C
:100F300084918093520110E023C01092800010929F
:100F40008100809181008860809381008091810080
:100F5000816080938100F1018491E82FF0E0EE0F31
:100F6000FF1FE358FF4F85919491ECEAF0E08491E4
:100F70008093510187E00E9488002CC017FD5EC05D
:100F800087E00E948800112319F0123009F518C07B
:100F900085B5887F836085BDF2E5F7BD8CE291E081
:100FA000A0E0B0E080935B0190935C01A0935D01B1
:100FB000B0935E0180916E00826080936E003EC0AF
:100FC0008091B100887F83608093B10085EA23C05F
:100FD0001130F1F480918100887F816080938100DD
:100FE000A4EDB4E1B0938900A09388008CE291E075
:100FF000A0E0B0E08093570190935801A09359016D
:10100000B0935A0180916F00826080936F0016C088
:101010001230A1F484ED8093B3008CE291E0A0E063
:10102000B0E08093530190935401A0935501B09385
:1010300056018091700082608093700087E491E097
:101040000E94D20364EF71E080E090E00E941901F9
:101050000E948002E4CD5058BB27AA270E94430873
:101060000C94B6090E94A80938F00E94AF0920F03C
:1010700039F49F3F19F426F40C94A5090EF4E09579
:10108000E7FB0C949F09E92F0E94C70958F3BA1790
:10109000620773078407950720F079F4A6F50C948E
:1010A000E9090EF4E0950B2EBA2FA02D0B01B90122
:1010B00090010C01CA01A0011124FF27591B99F0CE
:1010C000593F50F4503E68F11A16F040A22F232FDA
:1010D000342F4427585FF3CF469537952795A7952A
:1010E000F0405395C9F77EF41F16BA0B620B730BD1
:1010F000840BBAF09150A1F0FF0FBB1F661F771F42
:10110000881FC2F70EC0BA0F621F731F841F48F4F6
:10111000879577956795B795F7959E3F08F0B0CF7F
:101120009395880F08F09927EE0F97958795089566
:101130000E947B0908F481E008950E94B1080C9494
:10114000B6090E94AF0958F00E94A80940F029F49E
:101150005F3F29F00C949F0951110C94EA090C94FB
:10116000A5090E94C70968F39923B1F3552391F3A8
:10117000951B550BBB27AA2762177307840738F006
:101180009F5F5F4F220F331F441FAA1FA9F335D063
:101190000E2E3AF0E0E832D091505040E695001C17
:1011A000CAF72BD0FE2F29D0660F771F881FBB1FD1
:1011B000261737074807AB07B0E809F0BB0B802DAF
:1011C000BF01FF2793585F4F3AF09E3F510578F0DB
:1011D0000C949F090C94EA095F3FE4F3983ED4F322
:1011E000869577956795B795F7959F5FC9F7880FAF
:1011F000911D9695879597F90895E1E0660F771F01
:10120000881FBB1F621773078407BA0720F0621B91
:10121000730B840BBA0BEE1F88F7E09508950E94BC
:10122000CF0988F09F5798F0B92F9927B751B0F0A0
:10123000E1F0660F771F881F991F1AF0BA95C9F75A
:1012400014C0B13091F00E94E909B1E008950C9406
:10125000E909672F782F8827B85F39F0B93FCCF3B9
:10126000869577956795B395D9F73EF490958095D7
:10127000709561957F4F8F4F9F4F0895E89409C0F7
:1012800097FB3EF490958095709561957F4F8F4FB9
:101290009F4F9923A9F0F92F96E9BB279395F695CF
:1012A000879577956795B795F111F8CFFAF4BB0F4D
:1012B00011F460FF1BC06F5F7F4F8F4F9F4F16C0B1
:1012C000882311F096E911C0772321F09EE8872F3B
:1012D000762F05C0662371F096E8862F70E060E0F7
:1012E0002AF09A95660F771F881FDAF7880F969570
:1012F000879597F90895990F0008550FAA0BE0E814
:10130000FEEF16161706E807F907C0F012161306C7
:10131000E407F50798F0621B730B840B950B39F407
:101320000A2661F0232B242B252B21F408950A266D
:1013300009F4A140A6958FEF811D811D089597F9AD
:101340009F6780E870E060E008959FEF80EC08956B
:1013500000240A9416161706180609060895002494
:101360000A9412161306140605060895092E03940E
:10137000000C11F4882352F0BB0F40F4BF2B11F482
:1013800060FF04C06F5F7F4F8F4F9F4F089557FDE1
:101390009058440F551F59F05F3F71F04795880FE3
:1013A00097FB991F61F09F3F79F08795089512167A
:1013B00013061406551FF2CF4695F1DF08C0161626
:1013C00017061806991FF1CF8695710561050894D7
:1013D0000895E894BB2766277727CB0197F90895EE
:1013E0000E947B0908F48FEF08950E94080A0C946C
:1013F000B6090E94A80938F00E94AF0920F0952391
:1014000011F00C949F090C94A50911240C94EA097D
:101410000E94C70970F3959FC1F3950F50E0551FC7
:10142000629FF001729FBB27F00DB11D639FAA2739
:10143000F00DB11DAA1F649F6627B00DA11D661F88
:10144000829F2227B00DA11D621F739FB00DA11DA9
:10145000621F839FA00D611D221F749F3327A00D63
:10146000611D231F849F600D211D822F762F6A2FFF
:1014700011249F5750409AF0F1F088234AF0EE0F64
:10148000FF1FBB1F661F771F881F91505040A9F791
:101490009E3F510580F00C949F090C94EA095F3F30
:1014A000E4F3983ED4F3869577956795B795F795CD
:1014B000E7959F5FC1F7FE2B880F911D9695879545
:1014C00097F908950E947B09880B990B0895A1E272
:1014D0001A2EAA1BBB1BFD010DC0AA1FBB1FEE1FAE
:1014E000FF1FA217B307E407F50720F0A21BB30BF9
:1014F000E40BF50B661F771F881F991F1A9469F775
:1015000060957095809590959B01AC01BD01CF01D0
:101510000895EE0FFF1F0590F491E02D099481E0EE
:0C15200090E0F8940C94940AF894FFCF2B
:10152C00FF0000000011027E01A8015E02D901B784
:10153C0001CB0100000000C8037E01CF03CE035095
:10154C00726F6A65746F204C4852002054656D7040
:10155C003A20006E616E00696E66006F7666002040
:0E156C004300204F4B2000204E4F4B2000002C
:00000001FF
